:100000000A128A152C2F00308A000408840A8207FD
:1000100000345534733465347234203469346434B4
:1000200065346E34743469346634693465346434E8
:100030002E342034003420342034203420345334FF
:1000400061347634653420346D346F34643465340F
:100050002034203420340034553473346534723401
:1000600020346E346F347434203466346F34753415
:100070006E3464342E340034203450346C346134A3
:1000800063346534203479346F34753472342034F9
:1000900074346134673400345534733465347234E5
:1000A0002034493444342034733461347634653434
:1000B00064342E34003444346F346F34723420345A
:1000C0006C346F3463346B342034773469346C347B
:1000D0006C3400346234653420346C346F346334EF
:1000E0006B3465346434203469346E342034003425
:1000F0006F346E3420347434683465342034723490
:1001000065346134643465347234003420345234DC
:10011000463449344434203464346F346F34723498
:100120000034203473346534633475347234693484
:100130007434793400344934443420346E346F34A8
:060140003A3420340034C3
:10015200B1345734003400347F34003473087204ED
:10016200710470040319B628B7280129F901031490
:10017200F90DC9280130F8000310F00DF10DF20D50
:10018200F30DF80BBD280130F8007808F907C928EB
:10019200F31FCC28CD28BB28CF28CF28730877029D
:1001A200031DDD2872087602031DDD287108750221
:1001B200031DDD2870087402031CE028E128F028E2
:1001C2007008F4027108031C710FF5027208031C17
:1001D200720FF6027308031C730FF702F028013046
:1001E2000310F30CF20CF10CF00CFF3E031DF1288E
:1001F2000130F902031DFE28FF28CF280129012919
:100202007708F3007608F2007508F1007408F00030
:100212000A2908000A30831203132402031C12293C
:1002220013294F295430F3000B30F200E430F1006F
:100232000030F0002308F7002208F6002108F5003C
:100242002008F4000A128A11AF200A128A117308D8
:1002520083120313A3007208A2007108A1007008A0
:10026200A0003B30F3009A30F200CA30F1000030B7
:10027200F0002308F7002208F6002108F500200804
:10028200F4000A128A1592270A128A117008303E67
:100292000A128A156C260A128A114F290930831212
:1002A20003132402031C5629572993293B30F300D8
:1002B2009A30F200CA30F1000030F0002308F70053
:1002C2002208F6002108F5002008F4000A128A111B
:1002D200AF200A128A11730883120313A300720853
:1002E200A2007108A1007008A0000530F300F530EB
:1002F200F200E130F1000030F0002308F70022089C
:10030200F6002108F5002008F4000A128A15922747
:100312000A128A117008303E0A128A156C260A12D5
:100322008A1193290830831203132402031C9A2989
:100332009B29D7290530F300F530F200E130F100B6
:100342000030F0002308F7002208F6002108F5002B
:100352002008F4000A128A11AF200A128A117308C7
:1003620083120313A3007208A2007108A10070088F
:10037200A0000030F3009830F2009630F100803097
:10038200F0002308F7002208F6002108F5002008F3
:10039200F4000A128A1592270A128A117008303E56
:1003A2000A128A156C260A128A11D729073083127B
:1003B20003132402031CDE29DF291B2A0030F30069
:1003C2009830F2009630F1008030F0002308F700F8
:1003D2002208F6002108F5002008F4000A128A110A
:1003E200AF200A128A11730883120313A300720842
:1003F200A2007108A1007008A0000030F3000F30C5
:10040200F2004230F1004030F0002308F7002208E9
:10041200F6002108F5002008F4000A128A15922736
:100422000A128A117008303E0A128A156C260A12C4
:100432008A111B2A0630831203132402031C222A68
:10044200232A5F2A0030F3000F30F2004230F1001D
:100452004030F0002308F7002208F6002108F500DA
:100462002008F4000A128A11AF200A128A117308B6
:1004720083120313A3007208A2007108A10070087E
:10048200A0000030F3000130F2008630F100A0300D
:10049200F0002308F7002208F6002108F5002008E2
:1004A200F4000A128A1592270A128A117008303E45
:1004B2000A128A156C260A128A115F2A05308312E3
:1004C20003132402031C662A672AA32A0030F300BE
:1004D2000130F2008630F100A030F0002308F7006E
:1004E2002208F6002108F5002008F4000A128A11F9
:1004F200AF200A128A11730883120313A300720831
:10050200A2007108A1007008A0000030F3000030C2
:10051200F2002730F1001030F0002308F700220823
:10052200F6002108F5002008F4000A128A15922725
:100532000A128A117008303E0A128A156C260A12B3
:100542008A11A32A0430831203132402031CAA2A49
:10055200AB2AE72A0030F3000030F2002730F10026
:100562001030F0002308F7002208F6002108F500F9
:100572002008F4000A128A11AF200A128A117308A5
:1005820083120313A3007208A2007108A10070086D
:10059200A0000030F3000030F2000330F100E83038
:1005A200F0002308F7002208F6002108F5002008D1
:1005B200F4000A128A1592270A128A117008303E34
:1005C2000A128A156C260A128A11E72A033083124C
:1005D20003132402031CEE2AEF2A2B2B0030F30014
:1005E2000030F2000330F100E830F0002308F70099
:1005F2002208F6002108F5002008F4000A128A11E8
:10060200AF200A128A11730883120313A30072081F
:10061200A2007108A1007008A0000030F3000030B1
:10062200F2000030F1006430F0002308F7002208E5
:10063200F6002108F5002008F4000A128A15922714
:100642000A128A117008303E0A128A156C260A12A2
:100652008A112B2B0230831203132402031C322B28
:10066200332B6F2B0030F3000030F2000030F1002A
:100672006430F0002308F7002208F6002108F50094
:100682002008F4000A128A11AF200A128A11730894
:1006920083120313A3007208A2007108A10070085C
:1006A200A0000030F3000030F2000030F1000A3008
:1006B200F0002308F7002208F6002108F5002008C0
:1006C200F4000A128A1592270A128A117008303E23
:1006D2000A128A156C260A128A116F2B83120313CF
:1006E2002408031D752B9C2B0030F3000030F20010
:1006F2000030F1000A30F0002308F7002208F6006B
:100702002108F5002008F4000A128A11AF200A120B
:100712008A11730883120313A3007208A2007108DE
:10072200A1007008A0002008303E0A128A156C262B
:100732000A128A119C2B080083120313D001CE01E6
:10074200CF01CC015808CA01CA075708C901C90715
:100752005608C8005508C7005408C6005308C5000B
:100762000A128A1556270A128A110A128A1558265F
:100772000A128A1183120313CA01C701C80107169C
:1007820000300A128A159E260A128A117E300A1237
:100792008A15DC260A128A1114300A128A159E263C
:1007A2000A128A1189300A128A15DC260A128A1163
:1007B2000C3083120313A5002508D100D108031DB4
:1007C200E32BE42BE62BFD2BFD2B0030F3000F3047
:1007D200F2004230F1004030F0000A128A1502277E
:1007E2000A128A11013083120313D102D108031DA8
:1007F200FB2BFC2BE62BFD2BD001CE01CF010A12E5
:100802008A1558260A128A1100300A128A159E2663
:100812000A128A1135300A128A15DC260A128A1146
:1008220014300A128A159E260A128A1170300A1290
:100832008A15DC260A128A11352C871C212C222CBF
:10084200272C0719252C262C2B2C272CCC01031402
:10085200CC0D352C051A2E2C2F2C352C0230A50050
:100862002508CC00352C352C831203134C08031DAC
:100872003B2C1E2C512D512D8718402C412C562CCF
:10088200071D442C452C562C52082A3E8400831303
:1008920080014B2C87184E2C4F2C722C0719522C8E
:1008A200532C4B2C722C722C722C871C592C5A2CC8
:1008B200722C07195D2C5E2C722C52082A3E840081
:1008C200831380010314800D662C871C692C6A2C0B
:1008D200722C071D6D2C6E2C662C722C722C722CB5
:1008E200722C0130A5002508D207BB2C782C871C5E
:1008F2007B2C7C2C812C07197F2C802C782C812C32
:100902008718842C852C9A2C071D882C892C9A2CCC
:1009120052082A3E8400831380018F2C8718922C60
:10092200932CB62C0719962C972C8F2CB62CB62C00
:10093200B62C871C9D2C9E2CB62C0719A12CA22C00
:10094200B62C52082A3E8400831380010314800DC2
:10095200AA2C871CAD2CAE2CB62C071DB12CB22CA8
:10096200AA2CB62CB62CB62CB62C0130A500250824
:10097200D207BB2C1A305202031CC02CC12C782C7B
:10098200CC01D2010A128A1558260A128A11831240
:100992000313D20108305202031CD02CD12CD32CC9
:1009A200E92CE92C5208013E2A3E84005008A50099
:1009B200250783130004A6002608D0000130A500F5
:1009C2002508D20708305202031CE82CE92CD32C4C
:1009D200D20110305202031CEF2CF02CF22C152DF8
:1009E200152D5208093E2A3E840083130008A500F3
:1009F200A6014F08A8004E08A7000130FF0003100F
:100A0200A70DA80DFF0B002D25082704CE002608F0
:100A12002804CF000130A5002508D2071030520269
:100A2200031C142D152DF22CCD0102304D02031C96
:100A32001B2D1C2D1E2D4B2D4B2D4D08493E840088
:100A4200831300085006031D272D282D402D4D0825
:100A5200A5002507453E84000008A600840A000878
:100A6200A7004F082706031D382D4E082606031D32
:100A72003B2D3C2D402DC4010314C40D402D0130EB
:100A8200A5002508CD0702304D02031C492D4A2D31
:100A92001E2D4B2D0A128A1558260A128A11512D23
:100AA200831203134C08013A0319582D592D3D2C7A
:100AB200302E302E0A128A1558260A128A11003058
:100AC2000A128A159E260A128A1113300A128A15F0
:100AD200DC260A128A1114300A128A159E260A127C
:100AE2008A1134300A128A15DC260A128A11BF2DA5
:100AF2007A2D83120313871C7F2D802D852D0719D4
:100B0200832D842D7A2D852D8718882D892D9E2D54
:100B1200071D8C2D8D2D9E2D52082A3E8400831395
:100B22008001932D8718962D972DBA2D07199A2D8E
:100B32009B2D932DBA2DBA2DBA2D871CA12DA22D36
:100B4200BA2D0719A52DA62DBA2D52082A3E8400CA
:100B5200831380010314800DAE2D871CB12DB22D9D
:100B6200BA2D071DB52DB62DAE2DBA2DBA2DBA2D23
:100B7200BA2D0130A5002508D207BF2D1A308312E5
:100B820003135202031CC62DC72D7A2DCC01D201AC
:100B92000A128A1558260A128A1183120313D201E5
:100BA20008305202031CD62DD72DD92DEF2DEF2D53
:100BB2005208013E2A3E84005008A50025078313EF
:100BC2000004A6002608D0000130A5002508D2079F
:100BD20008305202031CEE2DEF2DD92DD201103018
:100BE2005202031CF52DF62DF82D1C2E1C2E520838
:100BF200093E2A3E840083130008A500A6014F087F
:100C0200A8004E08A7000130FF000310A70DA80D91
:100C1200FF0B062E25082704CE0026082804CF0045
:100C22000130A5002508D20710305202031C1A2EEB
:100C32001B2EF82D1C2E5008A5002508CA004F08AF
:100C4200C801C8074E08C701C7070230A50025081A
:100C5200C4000A128A1558260A128A11302E8312EB
:100C620003134C08023A0319372E382E5B2DC72F77
:100C7200C72F8514871100300A128A159E260A1280
:100C82008A1193300A128A15DC260A128A11073059
:100C92000A128A159E260A128A1183120313500819
:100CA200A500A601A701A8012808A3002708A20001
:100CB2002608A1002508A0000330A9002908A400E5
:100CC2000A128A110B210A128A110A300A128A1593
:100CD2009E260A128A11831203134E08A0004F089F
:100CE200A100A201A3010530A5002508A4000A1253
:100CF2008A110B210A128A1114300A128A159E26B1
:100D02000A128A1101300A128A15DC260A128A1185
:100D12000C3083120313A5002508D100D108031D4E
:100D2200932E942E962EAD2EAD2E0030F3000F3062
:100D3200F2004230F1004030F0000A128A15022718
:100D42000A128A11013083120313D102D108031D42
:100D5200AB2EAC2E962EAD2E0A128A1558260A12EA
:100D62008A1100300A128A159E260A128A115330FD
:100D72000A128A15DC260A128A1114300A128A15FE
:100D82009E260A128A1162300A128A15DC260A127B
:100D92008A11053083120313A5002508CB00CB0866
:100DA200031DD42ED52ED72ED12FD12F22300A12A9
:100DB2008A159E260A128A11831203134B08A50074
:100DC200A601A701A8012808A3002708A200260857
:100DD200A1002508A000A4010314A40D0A128A117F
:100DE2000B210A128A110A3083120313A500250867
:100DF200D100D108031DFE2EFF2E012F182F182F10
:100E02000030F3000F30F2004230F1004030F000C9
:100E12000A128A1502270A128A1101308312031359
:100E2200D102D108031D162F172F012F182F0130C1
:100E3200CB02CB08031D1E2F1F2FD72ED12FD12F50
:100E4200851487110A128A1558260A128A1100304F
:100E52000A128A159E260A128A1193300A128A15DC
:100E6200DC260A128A1107300A128A159E260A12F5
:100E72008A11831203135008A500A601A701A80135
:100E82002808A3002708A2002608A1002508A00020
:100E92000330A9002908A4000A128A110B210A12A0
:100EA2008A110A300A128A159E260A128A118312A0
:100EB20003134E08A0004F08A100A201A3010530B0
:100EC200A5002508A4000A128A110B210A128A1110
:100ED20014300A128A159E260A128A1144300A1206
:100EE2008A15DC260A128A11D12F85108715003047
:100EF2000A128A159E260A128A1193300A128A153C
:100F0200DC260A128A1107300A128A159E260A1254
:100F12008A11831203135008A500A601A701A80194
:100F22002808A3002708A2002608A1002508A0007F
:100F32000330A9002908A4000A128A110B210A12FF
:100F42008A110A300A128A159E260A128A118312FF
:100F520003134E08A0004F08A100A201A30105300F
:100F6200A5002508A4000A128A110B210A128A116F
:100F720014300A128A159E260A128A1124300A1285
:100F82008A15DC260A128A11D12FD12F831203135C
:100F92004408013A03193A2E033A0319212F762FF6
:100FA2000C3083120313A5002508D100D108031DBC
:100FB200DB2FDC2FDE2FF42FF42F0030F3000F3065
:100FC200F2004230F1004030F0000A128A15022786
:100FD2000A128A11013083120313D102D108031DB0
:100FE200F32FF42FDE2FD2018711C4018510D00117
:0E0FF200CE01CF01FD2BFD2B0A128A11002823
:101CB00001300A128A1585260A128A150030F300AF
:101CC0000030F2000130F1005E30F0000A128A1597
:101CD00002270A128A150800F6008312031305145E
:101CE000760886000030F3000030F2000130F10089
:101CF0009030F0000A128A1502270A128A150A1279
:101D00008A15BB260A128A150800F60083120313EF
:101D10000510760886000030F3000030F200013034
:101D2000F1009030F0000A128A1502270A128A1573
:101D30000A128A15BB260A128A150800F80010300C
:101D400078020318A42EA52EAD2E7808803E0A1224
:101D50008A1585260A128A15BA2E7808EC3EF700F5
:101D60007708F8007808C03E0A128A1585260A12FC
:101D70008A15BA2E08008312031387160030F30069
:101D80000030F2000130F1002C30F0000A128A1508
:101D900002270A128A158312031387120030F300F8
:101DA0000030F2000130F1002C30F0000A128A15E8
:101DB00002270A128A150800F800EF2E780884001E
:101DC0000A128A1103200A128A150A128A156C2631
:101DD0000A128A150130F7007708F807EF2E780805
:101DE000031DF32E012F780884000A128A110320A4
:101DF0000A128A150038031DFE2EFF2EDE2E012F3B
:101E0000012F08007108F501F5077008F401F407C7
:101E10007508803AFF0080307F02031D112F0130CA
:101E200074020318142F152F172F2B2F2B2FFF3071
:101E3000F4070318F50AFF30F5077508803AFF002C
:101E400080307F02031D262F013074020318292FD2
:101E50002A2F172F2B2F0800831203130A128A111F
:101E6000A9200A128A15D3000A128A11AA200A127E
:101E70008A15D4000A128A11AB200A128A15D500DD
:101E80000A128A11AC200A128A15D6000A128A1187
:101E9000AD200A128A15D7000A128A11AE200A1242
:101EA0008A15D80083010A128A119D2B06308316E9
:101EB00003139F003C308500860107308700013006
:101EC0000A128A1585260A128A1502300A128A1504
:101ED00085260A128A1506300A128A1585260A12E4
:101EE0008A150C300A128A1585260A128A1538308E
:101EF0000A128A1585260A128A15831203130712FD
:101F00000030F3000030F2001330F1008830F000B0
:101F10000A128A1502270A128A15831203138711DF
:101F2000851008000030FC000030FB000030FA0093
:101F30000030F90073087204710470040319A12FB2
:101F4000A22FF62FFD010314FD0DB42F0130F80070
:101F50000310F00DF10DF20DF30DF80BA82F013069
:101F6000F8007808FD07B42FF31FB72FB82FA62F5E
:101F7000BA2FBA2F0130F8000310F90DFA0DFB0D3E
:101F8000FC0DF80BBC2F73087702031DD12F7208CC
:101F90007602031DD12F71087502031DD12F700821
:101FA0007402031CD42FD52FE52F7008F40271089A
:101FB000031C710FF5027208031C720FF6027308FE
:101FC000031C730FF7027914E52F01300310F30C93
:101FD000F20CF10CF00CFF3E031DE62F0130FD0268
:101FE000031DF32FF42FBA2FF62FF62F7C08F300E2
:101FF0007B08F2007A08F1007908F000FF2F080052
:02400E00323F3F
:00000001FF
