:100000000A128A11AD2800308A000408840A820787
:1000100000345534733465347234203469346434B4
:1000200065346E34743469346634693465346434E8
:100030002E342034003420342034203420345334FF
:1000400061347634653420346D346F34643465340F
:100050002034203420340034553473346534723401
:1000600020346E346F347434203466346F34753415
:100070006E3464342E340034203450346C346134A3
:1000800063346534203479346F34753472342034F9
:1000900074346134673400345534733465347234E5
:1000A0002034493444342034733461347634653434
:1000B00064342E34003444346F346F34723420345A
:1000C0006C346F3463346B342034773469346C347B
:1000D0006C3400346234653420346C346F346334EF
:1000E0006B3465346434203469346E342034003425
:1000F0006F346E3420347434683465342034723490
:1001000065346134643465347234003420345234DC
:10011000463449344434203464346F346F34723498
:100120000034203473346534633475347234693484
:100130007434793400344934443420346E346F34A8
:060140003A3420340034C3
:10014E00B1345734003400347F3400348312031337
:10015E000A128A11A7200A128A11D3000A128A11D2
:10016E00A8200A128A11D4000A128A11A9200A1292
:10017E008A11D5000A128A11AA200A128A11D600F3
:10018E000A128A11AB200A128A11D7000A128A119A
:10019E00AC200A128A11D80083010A128A11D72BB9
:1001AE000030FC000030FB000030FA000030F90097
:1001BE0073087204710470040319E628E7283B29BA
:1001CE00FD010314FD0DF9280130F8000310F00DA8
:1001DE00F10DF20DF30DF80BED280130F800780853
:1001EE00FD07F928F31FFC28FD28EB28FF28FF2820
:1001FE000130F8000310F90DFA0DFB0DFC0DF80B94
:10020E00012973087702031D162972087602031D51
:10021E00162971087502031D162970087402031C35
:10022E0019291A292A297008F4027108031C710F62
:10023E00F5027208031C720FF6027308031C730F8B
:10024E00F70279142A2901300310F30CF20CF10C89
:10025E00F00CFF3E031D2B290130FD02031D382932
:10026E003929FF283B293B297C08F3007B08F20043
:10027E007A08F1007908F000442908000A30831248
:10028E0003132402031C4C294D2989295430F300F1
:10029E000B30F200E430F1000030F0002308F700DC
:1002AE002208F6002108F5002008F4000A128A152B
:1002BE00A4270A128A11730883120313A30072086B
:1002CE00A2007108A1007008A0003B30F3009A3024
:1002DE00F200CA30F1000030F0002308F7002208C7
:1002EE00F6002108F5002008F4000A128A11D72022
:1002FE000A128A117008303E0A128A15C1260A1295
:10030E008A1189290930831203132402031C9029B0
:10031E009129CD293B30F3009A30F200CA30F1001A
:10032E000030F0002308F7002208F6002108F5003F
:10033E002008F4000A128A15A4270A128A117308DB
:10034E0083120313A3007208A2007108A1007008A3
:10035E00A0000530F300F530F200E130F10000307E
:10036E00F0002308F7002208F6002108F500200807
:10037E00F4000A128A11D7200A128A117008303E30
:10038E000A128A15C1260A128A11CD290830831243
:10039E0003132402031CD429D529112A0530F30096
:1003AE00F530F200E130F1000030F0002308F700E4
:1003BE002208F6002108F5002008F4000A128A151A
:1003CE00A4270A128A11730883120313A30072085A
:1003DE00A2007108A1007008A0000030F300983050
:1003EE00F2009630F1008030F0002308F70022086A
:1003FE00F6002108F5002008F4000A128A11D72011
:10040E000A128A117008303E0A128A15C1260A1283
:10041E008A11112A0730831203132402031C182A8F
:10042E00192A552A0030F3009830F2009630F10068
:10043E008030F0002308F7002208F6002108F500AE
:10044E002008F4000A128A15A4270A128A117308CA
:10045E0083120313A3007208A2007108A100700892
:10046E00A0000030F3000F30F2004230F1004030B7
:10047E00F0002308F7002208F6002108F5002008F6
:10048E00F4000A128A11D7200A128A117008303E1F
:10049E000A128A15C1260A128A11552A06308312AB
:1004AE0003132402031C5C2A5D2A992A0030F300F0
:1004BE000F30F2004230F1004030F0002308F70018
:1004CE002208F6002108F5002008F4000A128A1509
:1004DE00A4270A128A11730883120313A300720849
:1004EE00A2007108A1007008A0000030F3000130D6
:1004FE00F2008630F100A030F0002308F700220849
:10050E00F6002108F5002008F4000A128A11D720FF
:10051E000A128A117008303E0A128A15C1260A1272
:10052E008A11992A0530831203132402031CA02A70
:10053E00A12ADD2A0030F3000130F2008630F100EE
:10054E00A030F0002308F7002208F6002108F5007D
:10055E002008F4000A128A15A4270A128A117308B9
:10056E0083120313A3007208A2007108A100700881
:10057E00A0000030F3000030F2002730F100103000
:10058E00F0002308F7002208F6002108F5002008E5
:10059E00F4000A128A11D7200A128A117008303E0E
:1005AE000A128A15C1260A128A11DD2A0430831214
:1005BE0003132402031CE42AE52A212B0030F30046
:1005CE000030F2002730F1001030F0002308F70061
:1005DE002208F6002108F5002008F4000A128A15F8
:1005EE00A4270A128A11730883120313A300720838
:1005FE00A2007108A1007008A0000030F3000030C6
:10060E00F2000330F100E830F0002308F700220872
:10061E00F6002108F5002008F4000A128A11D720EE
:10062E000A128A117008303E0A128A15C1260A1261
:10063E008A11212B0330831203132402031C282B4F
:10064E00292B652B0030F3000030F2000330F1004F
:10065E00E830F0002308F7002208F6002108F50024
:10066E002008F4000A128A15A4270A128A117308A8
:10067E0083120313A3007208A2007108A100700870
:10068E00A0000030F3000030F2000030F1006430C2
:10069E00F0002308F7002208F6002108F5002008D4
:1006AE00F4000A128A11D7200A128A117008303EFD
:1006BE000A128A15C1260A128A11652B023083127C
:1006CE0003132402031C6C2B6D2BA92B0030F3009B
:1006DE000030F2000030F1006430F0002308F70023
:1006EE002208F6002108F5002008F4000A128A15E7
:1006FE00A4270A128A11730883120313A300720827
:10070E00A2007108A1007008A0000030F3000030B4
:10071E00F2000030F1000A30F0002308F700220842
:10072E00F6002108F5002008F4000A128A11D720DD
:10073E000A128A117008303E0A128A15C1260A1250
:10074E008A11A92B831203132408031DAF2BD62B5A
:10075E000030F3000030F2000030F1000A30F000FB
:10076E002308F7002208F6002108F5002008F400FF
:10077E000A128A15A4270A128A1173088312031308
:10078E00A3007208A2007108A1007008A000200842
:10079E00303E0A128A15C1260A128A11D62B08007B
:1007AE0083120313D001CE01CF01CC015808CA0128
:1007BE00CA075708C901C9075608C8005508C70017
:1007CE005408C6005308C5000A128A1568270A1273
:1007DE008A110A128A1594260A128A118312031399
:1007EE00CA01C701C801071600300A128A15DA2697
:1007FE000A128A117E300A128A1518270A128A11D5
:10080E0014300A128A15DA260A128A1189300A124F
:10081E008A1518270A128A110C3083120313A500A9
:10082E002508D100D108031D1D2C1E2C202C372C81
:10083E00372C0030F3000F30F2004230F100403020
:10084E00F0000A128A153E270A128A11013083120D
:10085E000313D102D108031D352C362C202C372C36
:10086E00D001CE01CF010A128A1594260A128A11DE
:10087E0000300A128A15DA260A128A1135300A1247
:10088E008A1518270A128A1114300A128A15DA26C6
:10089E000A128A1170300A128A1518270A128A1142
:1008AE006F2C871C5B2C5C2C612C07195F2C602C29
:1008BE00652C612CCC010314CC0D6F2C051A682C01
:1008CE00692C6F2C0230A5002508CC006F2C6F2CE4
:1008DE00831203134C08031D752C582C522D522DC8
:1008EE00BC2C792C871C7C2C7D2C822C0719802CFF
:1008FE00812C792C822C8718852C862C9B2C071DFD
:10090E00892C8A2C9B2C52082A3E8400831380014A
:10091E00902C8718932C942CB72C0719972C982C65
:10092E00902CB72CB72CB72C871C9E2C9F2CB72C39
:10093E000719A22CA32CB72C52082A3E840083132D
:10094E0080010314800DAB2C871CAE2CAF2CB72C62
:10095E00071DB22CB32CAB2CB72CB72CB72CB72C45
:10096E000130A5002508D207BC2C1A305202031CF8
:10097E00C12CC22C792CCC01D2010A128A159426D4
:10098E000A128A1183120313D20108305202031C79
:10099E00D12CD22CD42CEA2CEA2C5208013E2A3E21
:1009AE0084005008A500250783130004A60026081E
:1009BE00D0000130A5002508D20708305202031CD2
:1009CE00E92CEA2CD42CD20110305202031CF02C4C
:1009DE00F12CF32C162D162D5208093E2A3E8400BA
:1009EE0083130008A500A6014F08A8004E08A70013
:1009FE000130FF000310A70DA80DFF0B012D2508D8
:100A0E002704CE0026082804CF000130A5002508B3
:100A1E00D20710305202031C152D162DF32CCD01CA
:100A2E0002304D02031C1C2D1D2D1F2D4C2D4C2D47
:100A3E004D08493E8400831300085006031D282DDF
:100A4E00292D412D4D08A5002507453E840000089F
:100A5E00A600840A0008A7004F082706031D392D9B
:100A6E004E082606031D3C2D3D2D412DC4010314B9
:100A7E00C40D412D0130A5002508CD0702304D02D1
:100A8E00031C4A2D4B2D1F2D4C2D0A128A15942610
:100A9E000A128A11522D831203134C08013A0319BC
:100AAE00592D5A2DBC2C312E312E0A128A15942610
:100ABE000A128A1100300A128A15DA260A128A11CF
:100ACE0013300A128A1518270A128A1114300A12C4
:100ADE008A15DA260A128A1134300A128A15182754
:100AEE000A128A11C02D7B2D83120313871C802DB1
:100AFE00812D862D0719842D852D7B2D862D87180A
:100B0E00892D8A2D9F2D071D8D2D8E2D9F2D5208DF
:100B1E002A3E840083138001942D8718972D982DDB
:100B2E00BB2D07199B2D9C2D942DBB2DBB2DBB2DA5
:100B3E00871CA22DA32DBB2D0719A62DA72DBB2DCE
:100B4E0052082A3E8400831380010314800DAF2DBA
:100B5E00871CB22DB32DBB2D071DB62DB72DAF2D76
:100B6E00BB2DBB2DBB2DBB2D0130A5002508D207FB
:100B7E00C02D1A30831203135202031CC72DC82D29
:100B8E007B2DCC01D2010A128A1594260A128A11E3
:100B9E0083120313D20108305202031CD72DD82D15
:100BAE00DA2DF02DF02D5208013E2A3E8400500819
:100BBE00A500250783130004A6002608D0000130E7
:100BCE00A5002508D20708305202031CEF2DF02D88
:100BDE00DA2DD20110305202031CF62DF72DF92D0D
:100BEE001D2E1D2E5208093E2A3E84008313000836
:100BFE00A500A6014F08A8004E08A7000130FF006F
:100C0E000310A70DA80DFF0B072E25082704CE00F5
:100C1E0026082804CF000130A5002508D207103081
:100C2E005202031C1B2E1C2EF92D1D2E5008A50042
:100C3E002508CA004F08C801C8074E08C701C707D4
:100C4E000230A5002508C4000A128A1594260A123D
:100C5E008A11312E831203134C08023A0319382ECF
:100C6E00392E5C2DC72FC72F8514871100300A121D
:100C7E008A15DA260A128A1193300A128A15182753
:100C8E000A128A1107300A128A15DA260A128A11F6
:100C9E00831203135008A500A601A701A801280876
:100CAE00A3002708A2002608A1002508A0000330F3
:100CBE00A9002908A4000A128A1145210A128A11D4
:100CCE000A300A128A15DA260A128A1183120313BF
:100CDE004E08A0004F08A100A201A3010530A500F7
:100CEE002508A4000A128A1145210A128A1114300D
:100CFE000A128A15DA260A128A1101300A128A1588
:100D0E0018270A128A110C3083120313A500250826
:100D1E00D100D108031D942E952E972EAE2EAE2EF9
:100D2E000030F3000F30F2004230F1004030F0009E
:100D3E000A128A153E270A128A11013083120313F2
:100D4E00D102D108031DAC2EAD2E972EAE2E0A1257
:100D5E008A1594260A128A1100300A128A15DA268A
:100D6E000A128A1153300A128A1518270A128A118A
:100D7E0014300A128A15DA260A128A1162300A1201
:100D8E008A1518270A128A11053083120313A5003B
:100D9E002508CB00CB08031DD52ED62ED82ED12F4D
:100DAE00D12F22300A128A15DA260A128A118312DC
:100DBE0003134B08A500A601A701A8012808A3004C
:100DCE002708A2002608A1002508A000A4010314EC
:100DDE00A40D0A128A1145210A128A110A308312B1
:100DEE000313A5002508D100D108031DFF2E002FE7
:100DFE00022F192F192F0030F3000F30F20042305E
:100E0E00F1004030F0000A128A153E270A128A11AC
:100E1E00013083120313D102D108031D172F182F8F
:100E2E00022F192F0130CB02CB08031D1F2F202FAD
:100E3E00D82ED12FD12F87110A128A1594260A1275
:100E4E008A1100300A128A15DA260A128A11933094
:100E5E000A128A1518270A128A1107300A128A15E1
:100E6E00DA260A128A11831203135008A500A6016E
:100E7E00A701A8012808A3002708A2002608A100A0
:100E8E002508A0000330A9002908A4000A128A111F
:100E9E0045210A128A110A300A128A15DA260A1216
:100EAE008A11831203134E08A0004F08A100A2015D
:100EBE00A3010530A5002508A4000A128A114521B8
:100ECE000A128A1114300A128A15DA260A128A11A7
:100EDE0044300A128A1518270A128A11D12F85104A
:100EEE00871500300A128A15DA260A128A119330F3
:100EFE000A128A1518270A128A1107300A128A1541
:100F0E00DA260A128A11831203135008A500A601CD
:100F1E00A701A8012808A3002708A2002608A100FF
:100F2E002508A0000330A9002908A4000A128A117E
:100F3E0045210A128A110A300A128A15DA260A1275
:100F4E008A11831203134E08A0004F08A100A201BC
:100F5E00A3010530A5002508A4000A128A11452117
:100F6E000A128A1114300A128A15DA260A128A1106
:100F7E0024300A128A1518270A128A11D12FD12F5E
:100F8E00831203134408013A03193B2E033A031943
:100F9E00222F762F0C3083120313A5002508D100C3
:100FAE00D108031DDB2FDC2FDE2FF42FF42F0030A2
:100FBE00F3000F30F2004230F1004030F0000A1220
:100FCE008A153E270A128A11013083120313D102A9
:100FDE00D108031DF32FF42FDE2FD2018711C40188
:100FEE008510D001CE01CF01372C372C0A128A1171
:020FFE000028C9
:101D280001300A128A15A8260A128A150030F30013
:101D38000030F2000130F1005E30F0000A128A151E
:101D48003E270A128A150800F600831203130510AD
:101D5800760886000030F3000030F2000130F10010
:101D68009030F0000A128A153E270A128A150A12C4
:101D78008A15F7260A128A150800F600831203133B
:101D88000514760886000030F3000030F2000130B8
:101D9800F1009030F0000A128A153E270A128A15BF
:101DA8000A128A15F7260A128A150800F800103058
:101DB80078020318E02EE12EE92E7808803E0A12F8
:101DC8008A15A8260A128A15F62E7808EC3EF7001E
:101DD8007708F8007808C03E0A128A15A8260A1261
:101DE8008A15F62E08008312031387160030F300B5
:101DF8000030F2000130F1002C30F0000A128A1590
:101E08003E270A128A158312031387120030F30043
:101E18000030F2000130F1002C30F0000A128A156F
:101E28003E270A128A150800F8002B2F780884002C
:101E38000A128A1103200A128A150A128A15C12663
:101E48000A128A150130F7007708F8072B2F78084F
:101E5800031D2F2F3D2F780884000A128A110320B2
:101E68000A128A150038031D3A2F3B2F1A2F3D2FCF
:101E78003D2F08007108F501F5077008F401F40713
:101E88007508803AFF0080307F02031D4D2F013016
:101E980074020318502F512F532F672F672FFF30CD
:101EA800F4070318F50AFF30F5077508803AFF00B4
:101EB80080307F02031D622F013074020318652FE2
:101EC800662F532F672F08000630831603139F00D1
:101ED8003C30850086010730870001300A128A15D8
:101EE800A8260A128A1502300A128A15A8260A128A
:101EF8008A1506300A128A15A8260A128A150C3085
:101F08000A128A15A8260A128A1538300A128A1562
:101F1800A8260A128A158312031307120030F30049
:101F28000030F2001330F1008830F0000A128A15F0
:101F38003E270A128A158312031387118510080099
:101F480073087204710470040319AB2FAC2FF62FB9
:101F5800F9010314F90DBE2F0130F8000310F00D3C
:101F6800F10DF20DF30DF80BB22F0130F8007808DF
:101F7800F907BE2FF31FC12FC22FB02FC42FC42FB4
:101F880073087702031DD22F72087602031DD22F21
:101F980071087502031DD22F70087402031CD52F17
:101FA800D62FE52F7008F4027108031C710FF50293
:101FB8007208031C720FF6027308031C730FF702F2
:101FC800E52F01300310F30CF20CF10CF00CFF3E7E
:101FD800031DE62F0130F902031DF32FF42FC42F40
:101FE800F62FF62F7708F3007608F2007508F1004F
:081FF8007408F000FF2F08003F
:02400E00323F3F
:00000001FF
