:10000000783084000730FE00A930FF001120800006
:10001000840A04087E3A03191528FF0A0319FE0A08
:1000200006287E088A007F0882000A128A11182892
:100030000310003003180130A4000030A700003086
:10004000A8000310003003180130A3007C08A901A8
:10005000A9077D08AA01AA077B08AE007A08AD00AF
:100060007908AC007808AB000A128A1558270A12E2
:100070008A110A128A15A2260A128A110310831203
:100080000313003003180130AA000030AD00003027
:10009000AE00071600300A128A15EA260A128A11E3
:1000A0007E300A128A1530270A128A1114300A1279
:1000B0008A15EA260A128A1189300A128A1530270F
:1000C0000A128A110C3083120313A500672800302E
:1000D000D7000F30D6004230D5004030D4000A128D
:1000E0008A1508270A128A11831203130130A50208
:1000F000A508031D7C287D286728031000300318FD
:100100000130A4000030A7000030A8000A128A15B0
:10011000A2260A128A1100300A128A15EA260A1249
:100120008A1135300A128A1530270A128A111430C2
:100130000A128A15EA260A128A1162300A128A15F0
:1001400030270A128A11B628871CA728A828AC28AD
:100150000719AB28AC28B028A3010314A30DB628B7
:10016000051AB328B428B6280230A300831203135B
:10017000A308031DBC28A428B9298718C028C128B2
:10018000D728071DC428C528D728031026082F3EC6
:1001900084000030031801308000CE288718D12851
:1001A000D228D6280719D528D628CE28EE28871C8D
:1001B000DA28DB28EE280719DE28DF28EE282608B3
:1001C0002F3E840080010314800DE628871CE92857
:1001D000EA28EE28071DED28EE28E6280130C900A0
:1001E0004908A6073329F428871CF728F828FC2893
:1001F0000719FB28FC28F4288718FF28002917294D
:10020000071D0329042917290310260883132F3EED
:10021000840000300318013080000E29871811294E
:10022000122916290719152916290E292F29871C85
:100230001A291B292F2907191E291F292F292608AA
:1002400083132F3E840080010314800D2729871C0F
:100250002A292B292F29071D2E292F29272901304B
:10026000C9004908A6071A302602031C3829392973
:10027000F3280310003003180130A30003100030EE
:1002800003180130A6000A128A15A2260A128A1142
:10029000031083120313003003180130A600502905
:1002A00026088313013E2F3E84002408C900490715
:1002B0000004A4000130C9004908A607083026023E
:1002C000031C6329642950290310003003180130EE
:1002D000A6006A292808CA002708C900013084003E
:1002E0000310C90DCA0D840B70292608093E2F3E44
:1002F000840000084904A7004A08A8000130C9008A
:100300004908A60710302602031C872988296A2974
:100310000310003003180130A2008E292208293E64
:10032000840000082406031D96299729AA2922087B
:10033000C90049072B3E840027080006031DA32996
:100340002808840A0006031DA629A729AA29A001B6
:100350000314A00D0130C9004908A207023022028F
:10036000031CB329B4298E290A128A15A2260A125F
:100370008A118312031323088313013A0319C12935
:10038000C229BD28892A0A128A15A2260A128A11B0
:1003900000300A128A15EA260A128A1113300A124C
:1003A0008A1530270A128A1114300A128A15EA2691
:1003B0000A128A1134300A128A1530270A128A1159
:1003C000212AE229871CE529E629EA290719E929D2
:1003D000EA29E2298718ED29EE29052A071DF129C6
:1003E000F229052A0310260883132F3E84000030CB
:1003F000031801308000FC298718FF29002A042AED
:100400000719032A042AFC291D2A871C082A092AFD
:100410001D2A07190C2A0D2A1D2A260883132F3E90
:10042000840080010314800D152A871C182A192ABC
:100430001D2A071D1C2A1D2A152A0130C90049083A
:10044000A6071A30831203132602031C282A292A1E
:10045000E1290310003003180130A300031000301D
:1004600003180130A6000A128A15A2260A128A1160
:10047000031083120313003003180130A600402A32
:1004800026088313013E2F3E84002408C900490733
:100490000004A4000130C9004908A607083026025C
:1004A000031C532A542A402A031000300318013039
:1004B000A6005A2A2808CA002708C900013084006B
:1004C0000310C90DCA0D840B602A2608093E2F3E71
:1004D000840000084904A7004A08A8000130C900A8
:1004E0004908A60710302602031C772A782A5A2AC0
:1004F0002408C9004908AA002708AD01AD0728084B
:10050000AE01AE070230A0000A128A15A2260A1216
:100510008A118312031323088313023A0319912AC1
:10052000922AC329082C8514871100300A128A15D3
:10053000EA260A128A1193300A128A1530270A1203
:100540008A1107300A128A15EA260A128A11033024
:1005500083120313C9004908D20024088313CA0078
:10056000CB01CC01CD014D08D1004C08D0004B0887
:10057000CF004A08CE000A128A1165240A128A1195
:100580000A300A128A15EA260A128A1105308312E5
:100590000313C9004908D2002708CE002808CF005D
:1005A000D001D1010A128A1165240A128A1114306D
:1005B0000A128A15EA260A128A1101300A128A15CD
:1005C00030270A128A110C3083120313A500E82A7F
:1005D0000030D7000F30D6004230D5004030D40074
:1005E0000A128A1508270A128A118312031301308E
:1005F000A502A508031DFD2AFE2AE82A0A128A156B
:10060000A2260A128A1100300A128A15EA260A1254
:100610008A1144300A128A1530270A128A111430BE
:100620000A128A15EA260A128A1170300A128A15ED
:1006300030270A128A11053083120313A100202BE0
:1006400022300A128A15EA260A128A11831203132B
:10065000D2010314D20D21088313C900CA01CB01B2
:10066000CC014C08D1004B08D0004A08CF00490803
:10067000CE000A128A1165240A128A110A308312E6
:100680000313A500432B0030D7000F30D6004230B3
:10069000D5004030D4000A128A1508270A128A11A0
:1006A000831203130130A502A508031D582B592BF3
:1006B000432B0130A102A108031D5F2B602B202BCF
:1006C000102C851487110A128A15A2260A128A1183
:1006D00000300A128A15EA260A128A1193300A1289
:1006E0008A1530270A128A1107300A128A15EA265B
:1006F0000A128A11033083120313C9004908D20079
:1007000024088313CA00CB01CC01CD014D08D100D0
:100710004C08D0004B08CF004A08CE000A128A11BC
:1007200065240A128A110A300A128A15EA260A1268
:100730008A11053083120313C9004908D200270823
:10074000CE002808CF00D001D1010A128A116524F9
:100750000A128A1114300A128A15EA260A128A111C
:1007600053300A128A1530270A128A11102C85106C
:10077000871500300A128A15EA260A128A11933068
:100780000A128A1530270A128A1107300A128A15AE
:10079000EA260A128A11033083120313C90049089A
:1007A000D20024088313CA00CB01CC01CD014D082F
:1007B000D1004C08D0004B08CF004A08CE000A12E6
:1007C0008A1165240A128A110A300A128A15EA2649
:1007D0000A128A11053083120313C9004908D20096
:1007E0002708CE002808CF00D001D1010A128A11B3
:1007F00065240A128A1114300A128A15EA260A128E
:100800008A1124300A128A1530270A128A11102CF4
:100810002008013A0319932A033A0319612BB72BD5
:100820000C3083120313A500152C0030D7000F30B5
:10083000D6004230D5004030D4000A128A1508276D
:100840000A128A11831203130130A502A508031DA1
:100850002A2C2B2C152C0310003003180130A60075
:1008600087110310003003180130A0008510031019
:10087000003003180130A4000030A7000030A800A9
:100880007D280A128A11002883120313871600306C
:10089000D7000030D6000130D5002C30D4000A1229
:1008A0008A1508270A128A1183120313871200304F
:1008B000D7000030D6000130D5002C30D4000A1209
:1008C0008A1508270A128A1108000A305202031CEE
:1008D0006A2C6B2CA82C5430DA000B30D900E43091
:1008E000D8000030D7005108D6005008D5004F0876
:1008F000D4004E08D3000A128A11AF270A128A11B7
:10090000831203135608D1005508D0005408CF00B5
:100910005308CE003B30DA009A30D900CA30D800F4
:100920000030D7005108D6005008D5004F08D40039
:100930004E08D3000A128A1598270A128A118312C8
:1009400003135308303E0A128A15B8260A128A1178
:100950000930831203135202031CAF2CB02CED2C70
:100960003B30DA009A30D900CA30D8000030D700C6
:100970005108D6005008D5004F08D4004E08D300C7
:100980000A128A11AF270A128A118312031356081A
:10099000D1005508D0005408CF005308CE000530D0
:1009A000DA00F530D900E130D8000030D700510826
:1009B000D6005008D5004F08D4004E08D3000A12C4
:1009C0008A1598270A128A11831203135308303E9E
:1009D0000A128A15B8260A128A11083083120313E4
:1009E0005202031CF42CF52C322D0530DA00F530C0
:1009F000D900E130D8000030D7005108D6005008A7
:100A0000D5004F08D4004E08D3000A128A11AF2730
:100A10000A128A11831203135608D1005508D00018
:100A20005408CF005308CE000030DA009830D900C7
:100A30009630D8008030D7005108D6005008D50035
:100A40004F08D4004E08D3000A128A1598270A12BC
:100A50008A11831203135308303E0A128A15B826EE
:100A60000A128A110730831203135202031C392D14
:100A70003A2D772D0030DA009830D9009630D80022
:100A80008030D7005108D6005008D5004F08D40058
:100A90004E08D3000A128A11AF270A128A11831254
:100AA00003135608D1005508D0005408CF0053084E
:100AB000CE000030DA000F30D9004230D80040308C
:100AC000D7005108D6005008D5004F08D4004E0872
:100AD000D3000A128A1598270A128A118312031367
:100AE0005308303E0A128A15B8260A128A110630B7
:100AF000831203135202031C7E2D7F2DBC2D003068
:100B0000DA000F30D9004230D8004030D700510809
:100B1000D6005008D5004F08D4004E08D3000A1262
:100B20008A11AF270A128A11831203135608D100C3
:100B30005508D0005408CF005308CE000030DA002A
:100B40000130D9008630D800A030D7005108D60037
:100B50005008D5004F08D4004E08D3000A128A1559
:100B600098270A128A11831203135308303E0A127F
:100B70008A15B8260A128A1105308312031352020D
:100B8000031CC32DC42D012E0030DA000130D90022
:100B90008630D800A030D7005108D6005008D500C4
:100BA0004F08D4004E08D3000A128A11AF270A1248
:100BB0008A11831203135608D1005508D000540837
:100BC000CF005308CE000030DA000030D9002730C3
:100BD000D8001030D7005108D6005008D5004F0873
:100BE000D4004E08D3000A128A1598270A128A11D7
:100BF000831203135308303E0A128A15B8260A12CC
:100C00008A110430831203135202031C082E092E8A
:100C1000462E0030DA000030D9002730D8001030DE
:100C2000D7005108D6005008D5004F08D4004E0810
:100C3000D3000A128A11AF270A128A1183120313F2
:100C40005608D1005508D0005408CF005308CE00F4
:100C50000030DA000030D9000330D800E830D70087
:100C60005108D6005008D5004F08D4004E08D300D4
:100C70000A128A1598270A128A118312031353083D
:100C8000303E0A128A15B8260A128A1103308312DE
:100C900003135202031C4D2E4E2E8B2E0030DA0011
:100CA0000030D9000330D800E830D7005108D60012
:100CB0005008D5004F08D4004E08D3000A128A11FC
:100CC000AF270A128A11831203135608D100550860
:100CD000D0005408CF005308CE000030DA000030B6
:100CE000D9000030D8006430D7005108D600500831
:100CF000D5004F08D4004E08D3000A128A15982751
:100D00000A128A11831203135308303E0A128A15FD
:100D1000B8260A128A110230831203135202031CEE
:100D2000922E932ED02E0030DA000030D900003001
:100D3000D8006430D7005108D6005008D5004F08BD
:100D4000D4004E08D3000A128A11AF270A128A1162
:100D5000831203135608D1005508D0005408CF0061
:100D60005308CE000030DA000030D9000030D8003F
:100D70000A30D7005108D6005008D5004F08D400DB
:100D80004E08D3000A128A1598270A128A11831274
:100D900003135308303E0A128A15B8260A128A1124
:100DA0000130831203135202031CD72ED82EFF2EBC
:100DB0000030DA000030D9000030D8000A30D70007
:100DC0005108D6005008D5004F08D4004E08D30073
:100DD0000A128A11AF270A128A11831203135608C6
:100DE000D1005508D0005408CF005308CE004E085B
:100DF0008313303E0A128A15B8260A128A11080097
:100E0000FE00FE1F082F83137E18831700080800BA
:100E10000408FE0007308A007E088207003455343B
:100E200073346534723420346934643465346E3418
:100E30007434693466346934653464342E3420344F
:100E40000034203420342034203453346134763458
:100E5000653420346D346F34643465342034203488
:100E600020340034553473346534723420346E3495
:100E70006F347434203466346F3475346E346434B3
:100E80002E340034203450346C346134633465348F
:100E9000203479346F3475347234203474346134CE
:100EA0006734003444346F346F34723420346C341B
:100EB0006F3463346B342034773469346C346C347D
:100EC0000034553473346534723420344934443436
:100ED0002034733461347634653464342E34003411
:100EE0006F346E3420347434683465342034723492
:100EF000653461346434653472340034623465348A
:100F000020346C346F3463346B346534643420348F
:100F100069346E3420340034203452344634493439
:100F20004434203464346F346F34723400342034E9
:100F30007334653463347534723469347434793499
:100F400000344934443420346E346F343A3420341D
:100F50000034B1345734003400347F3400345A083C
:100F60005904580457040319B62FB72FFB2FDB0180
:100F70000314DB0DC82F0130DC000310D70DD80D92
:100F8000D90DDA0DDC0BBD2F0130DC005C08DB076E
:100F9000DA1FCB2FCC2FBB2F5A085602031DDA2F96
:100FA00059085502031DDA2F58085402031DDA2F81
:100FB00057085302031CDD2FDE2FEC2F5708D302F6
:100FC0005808031C580FD4025908031C590FD502A6
:100FD0005A08031C5A0FD60201300310DA0CD90C40
:100FE000D80CD70CFF3E031DED2F0130DB02031D93
:0A0FF000FA2FFB2FCC2FFC2F080076
:101D440001300A128A15D0260A128A158312031347
:101D54000030D7000030D6000130D5005E30D4000A
:101D64000A128A1508270A128A150800D3000514D6
:101D74005308831386000030D7000030D6000130AA
:101D8400D5009030D4000A128A1508270A128A1541
:101D94000A128A1144240A128A15080083120313B2
:101DA400CF0005104F08831386000030D7000030A1
:101DB400D6000130D5009030D4000A128A150827C5
:101DC4000A128A150A128A1144240A128A15080072
:101DD40083120313CE0010304E020318F22EF32E9A
:101DE400FC2E4E088313803E0A128A15D0260A124E
:101DF4008A15072F4E088313EC3ECE004E08C03ED2
:101E04000A128A15D0260A128A1508005408D80125
:101E1400D8075508D901D9075908803ADA00803023
:101E24005A02031D172F0130580203181A2F1B2FB3
:101E34001C2F2F2FFF30D8070318D90AFF30D907DA
:101E44005908803ADA0080305A02031D2B2F0130E2
:101E5400580203182E2F2F2F1C2F08008312031350
:101E6400CE00452F4E080A128A1109270A128A1534
:101E74000A128A15B8260A128A150130831203132E
:101E8400CF004F08CE0783120313CE08031D4B2F38
:101E9400572F4E0883130A128A1109270A128A152A
:101EA4000038031D562F572F342F08000630831691
:101EB40003139F003C3085000310003003180130E9
:101EC40086000730870001300A128A15D0260A12CC
:101ED4008A1502300A128A15D0260A128A1506308B
:101EE4000A128A15D0260A128A150C300A128A158B
:101EF400D0260A128A1538300A128A15D0260A12F8
:101F04008A158312031307120030D7000030D6005D
:101F14001330D5008830D4000A128A1508270A1213
:101F24008A15831203138711851008000030DF001F
:101F34000030DE000030DD000030DC005A085904B7
:101F4400580457040319A72FA82FF62FDB010314F5
:101F5400DB0DB92F0130E0000310D70DD80DD90DDA
:101F6400DA0DE00BAE2F0130E0006008DB07DA1F6A
:101F7400BC2FBD2FAC2F0130E0000310DC0DDD0DB4
:101F8400DE0DDF0DE00BBF2F5A085602031DD42FC0
:101F940059085502031DD42F58085402031DD42F89
:101FA40057085302031CD72FD82FE72F5708D30203
:101FB4005808031C580FD4025908031C590FD502A2
:101FC4005A08031C5A0FD6025C1401300310DA0CB1
:101FD400D90CD80CD70CFF3E031DE82F0130DB02CF
:101FE400031DF52FF62FBD2F5F08D6005E08D50020
:0C1FF4005D08D4005C08D300FF2F08003B
:02400E00323F3F
:00000001FF
