:100000000A128A11D82F00308A000408840A820755
:1000100000345534733465347234203469346434B4
:1000200065346E34743469346634693465346434E8
:100030002E342034003420342034203420345334FF
:1000400061347634653420346D346F34643465340F
:100050002034203420340034553473346534723401
:1000600020346E346F347434203466346F34753415
:100070006E3464342E340034203450346C346134A3
:1000800063346534203479346F34753472342034F9
:1000900074346134673400345534733465347234E5
:1000A0002034493444342034733461347634653434
:1000B00064342E34003444346F346F34723420345A
:1000C0006C346F3463346B342034773469346C347B
:1000D0006C3400346234653420346C346F346334EF
:1000E0006B3465346434203469346E342034003425
:1000F0006F346E3420347434683465342034723490
:1001000065346134643465347234003420345234DC
:10011000463449344434203464346F346F34723498
:100120000034203473346534633475347234693484
:100130007434793400344934443420346E346F34A8
:060140003A3420340034C3
:10014800B1345734003400347F340034F60083125D
:1001580003130510760886000030F3000030F20023
:100168000130F1009030F0000A128A15D4270A12E3
:100178008A110A128A11D8200800F6008312031384
:100188000514760886000030F3000030F2000130D4
:10019800F1009030F0000A128A15D4270A128A1149
:1001A8000A128A11D8200800831203138716003018
:1001B800F3000030F2000130F1002C30F0000A1298
:1001C8008A15D4270A128A11831203138712003062
:1001D800F3000030F2000130F1002C30F0000A1278
:1001E8008A15D4270800F800780803190800780849
:1001F80084000A128A1103200A128A11003A03198C
:100208000800780884000A128A1103200A128A1149
:100218000A128A11C1200A128A110130F7007708E0
:10022800F807F8280630831603139F003C30850032
:1002380086010730870001300A128A11AA200A12A3
:100248008A1102300A128A11AA200A128A1106306B
:100258000A128A11AA200A128A110C300A128A116B
:10026800AA200A128A1138300A128A11AA200A1200
:100278008A118312031307120030F3000030F200D2
:100288001330F1008830F0000A128A15D42783123F
:100298000313871185100800730872047104700431
:1002A80003199329F901F90AF31B68290130F800A9
:1002B8000310F00DF10DF20DF30DF80B5C29013070
:1002C800F8007808F907582973087702031D76297A
:1002D80072087602031D762971087502031D7629B6
:1002E80070087402031C86297008F4027108031C44
:1002F800710FF5027208031C720FF6027308031CD3
:10030800730FF70201300310F30CF20CF10CF00C30
:10031800FF3E031D87290130F902031D682977086C
:10032800F3007608F2007508F1007408F000080080
:100338000030FC000030FB000030FA000030F9000B
:1003480073087204710470040319F129FD01FD0A90
:10035800F31BBC290130F8000310F00DF10DF20D6C
:10036800F30DF80BB0290130F8007808FD07AC2927
:100378000130F8000310F90DFA0DFB0DFC0DF80B18
:10038800BE2973087702031DD32972087602031D5C
:10039800D32971087502031DD32970087402031C40
:1003A800E4297008F4027108031C710FF502720841
:1003B800031C720FF6027308031C730FF7027914FB
:1003C80001300310F30CF20CF10CF00CFF3E031D8E
:1003D800E5290130FD02031DBC297C08F3007B08D8
:1003E800F2007A08F1007908F00008000A30831258
:1003F80003132402031C3B2A5430F3000B30F20091
:10040800E430F1000030F0002308F7002208F6007D
:100418002108F5002008F4000A128A1150210A1256
:100428008A11730883120313A3007208A2007108CB
:10043800A1007008A0003B30F3009A30F200CA30E7
:10044800F1000030F0002308F7002208F600210828
:10045800F5002008F4000A128A119C210A128A1158
:100468007008303E0A128A11C1200A128A11093016
:10047800831203132402031C7C2A3B30F3009A30B6
:10048800F200CA30F1000030F0002308F70022081B
:10049800F6002108F5002008F4000A128A115021FC
:1004A8000A128A11730883120313A3007208A200A8
:1004B8007108A1007008A0000530F300F530F200C3
:1004C800E130F1000030F0002308F7002208F600C0
:1004D8002108F5002008F4000A128A119C210A124A
:1004E8008A117008303E0A128A11C1200A128A1134
:1004F8000830831203132402031CBD2A0530F300BD
:10050800F530F200E130F1000030F0002308F70088
:100518002208F6002108F5002008F4000A128A11C2
:1005280050210A128A11730883120313A300720858
:10053800A2007108A1007008A0000030F3009830F4
:10054800F2009630F1008030F0002308F70022080E
:10055800F6002108F5002008F4000A128A119C21EF
:100568000A128A117008303E0A128A11C1200A1232
:100578008A110730831203132402031CFE2A003059
:10058800F3009830F2009630F1008030F000230834
:10059800F7002208F6002108F5002008F4000A12E6
:1005A8008A1150210A128A11730883120313A300B7
:1005B8007208A2007108A1007008A0000030F300C2
:1005C8000F30F2004230F1004030F0002308F7000D
:1005D8002208F6002108F5002008F4000A128A1102
:1005E8009C210A128A117008303E0A128A11C12011
:1005F8000A128A110630831203132402031C3F2BAC
:100608000030F3000F30F2004230F1004030F000CB
:100618002308F7002208F6002108F5002008F40056
:100628000A128A1150210A128A11730883120313BD
:10063800A3007208A2007108A1007008A000003091
:10064800F3000130F2008630F100A030F0002308FA
:10065800F7002208F6002108F5002008F4000A1225
:100668008A119C210A128A117008303E0A128A11D6
:10067800C1200A128A110530831203132402031CB5
:10068800802B0030F3000130F2008630F100A030FA
:10069800F0002308F7002208F6002108F5002008DA
:1006A800F4000A128A1150210A128A11730883125F
:1006B8000313A3007208A2007108A1007008A0002B
:1006C8000030F3000030F2002730F1001030F00065
:1006D8002308F7002208F6002108F5002008F40096
:1006E8000A128A119C210A128A117008303E0A12D5
:1006F8008A11C1200A128A110430831203132402BA
:10070800031CC12B0030F3000030F2002730F10049
:100718001030F0002308F7002208F6002108F50041
:100728002008F4000A128A1150210A128A1173084B
:1007380083120313A3007208A2007108A1007008B5
:10074800A0000030F3000030F2000330F100E83080
:10075800F0002308F7002208F6002108F500200819
:10076800F4000A128A119C210A128A117008303E7C
:100778000A128A11C1200A128A1103308312031344
:100788002402031C022C0030F3000030F200033076
:10079800F100E830F0002308F7002208F6002108ED
:1007A800F5002008F4000A128A1150210A128A1151
:1007B800730883120313A3007208A2007108A10032
:1007C8007008A0000030F3000030F2000030F100A3
:1007D8006430F0002308F7002208F6002108F5002D
:1007E8002008F4000A128A119C210A128A11700842
:1007F800303E0A128A11C1200A128A11023083126D
:1008080003132402031C432C0030F3000030F200D1
:100818000030F1006430F0002308F7002208F600E9
:100828002108F5002008F4000A128A1150210A1242
:100838008A11730883120313A3007208A2007108B7
:10084800A1007008A0000030F3000030F200003072
:10085800F1000A30F0002308F7002208F60021080A
:10086800F5002008F4000A128A119C210A128A1144
:100878007008303E0A128A11C1200A128A118312A6
:1008880003132408031908000030F3000030F200B5
:100898000030F1000A30F0002308F7002208F600C3
:1008A8002108F5002008F4000A128A1150210A12C2
:1008B8008A11730883120313A3007208A200710837
:1008C800A1007008A0002008303E0A128A11C12039
:1008D800080083120313D001CE01CF01CC015808C0
:1008E800CA005708C9005608C8005508C700540868
:1008F800C6005308C5000A128A1116210A128A1165
:100908000A128A15C2270A128A1183120313CA010E
:10091800C701C801071600300A128A15EA270A1209
:100928008A117E300A128A11F7200A128A111430AD
:100938000A128A15EA270A128A1189300A128A11BC
:10094800F7200A128A110C3083120313A500250818
:10095800D10051080319C42C0030F3000F30F20005
:100968004230F1004030F0000A128A15D4270A12EA
:100978008A11013083120313D1025108031DB02CD0
:10098800D001CE01CF010A128A15C2270A128A1194
:1009980000300A128A15EA270A128A1135300A121B
:1009A8008A11F7200A128A1114300A128A15EA27C6
:1009B8000A128A1170300A128A11F7200A128A1153
:1009C800831203134C08031D8E2D871CED2C071969
:1009D800F02CCC01CC0AE42C051AE42C0230A5003A
:1009E8002508CC00E42C071DFB2C8718F72C871C46
:1009F800071D072D52082A3E840083138001871C97
:100A0800071D142D032D87180719142D52082A3E87
:100A1800840083138001800A871C142D071D102D64
:100A28000130A5002508D2071A305202031CF92C00
:100A3800CC01D2010A128A15C2270A128A1183121E
:100A48000313D2010830520203183E2D5208013E0A
:100A58002A3E84005008A500250783130004A60039
:100A68002608D0000130A5002508D2070830520218
:100A7800031C2A2DD201103052020318602D52088F
:100A8800093E2A3E840083130008A500A6014F08EA
:100A9800A8004E08A7000310A70DA80D25082704D5
:100AA800CE0026082804CF000130A5002508D2076B
:100AB80010305202031C432DCD0102304D020318A1
:100AC800892D4D08493E8400831300085006031DF4
:100AD800812D4D08A5002507453E84000008A60085
:100AE800840A0008A7004F082706031D7D2D4E081D
:100AF8002606031D812DC401C40A0130A50025085E
:100B0800CD0702304D02031C652D0A128A15C22733
:100B18000A128A11831203134C03031D302E182D59
:100B28000A128A15C2270A128A1100300A128A1577
:100B3800EA270A128A1113300A128A11F7200A12B8
:100B48008A1114300A128A15EA270A128A113430D7
:100B58000A128A11F7200A128A11D52D071DB82DFD
:100B6800831203138718B22D871C071DC42D520842
:100B78002A3E840083138001871C071DD12DC02DB8
:100B880087180719D12D52082A3E84008313800143
:100B9800800A871CD12D071DCD2D0130A500250801
:100BA800D2071A30831203135202031CB42DCC014E
:100BB800D2010A128A15C2270A128A118312031354
:100BC800D201083052020318FD2D5208013E2A3E78
:100BD80084005008A500250783130004A6002608F2
:100BE800D0000130A5002508D20708305202031CA6
:100BF800E92DD2011030520203181F2E5208093E67
:100C08002A3E840083130008A500A6014F08A80007
:100C18004E08A7000310A70DA80D25082704CE002D
:100C280026082804CF000130A5002508D207103077
:100C38005202031C022E5008A5002508CA004F08BE
:100C4800C8004E08C7000230A5002508C4000A12D3
:100C58008A15C2270A128A110230831203134C061E
:100C6800031DA92F942D8514871100300A128A15A7
:100C7800EA270A128A1193300A128A11F7200A12F7
:100C88008A1107300A128A15EA270A128A11831272
:100C980003135008A500A601A701A8012808A3006E
:100CA8002708A2002608A1002508A0000330A900F3
:100CB8002908A4000A128A11FA210A128A110A3094
:100CC8000A128A15EA270A128A11831203134E0898
:100CD800A0004F08A100A201A3010530A500250826
:100CE800A4000A128A11FA210A128A1114300A126F
:100CF8008A15EA270A128A1101300A128A11F72086
:100D08000A128A110C3083120313A5002508D1009A
:100D180051080319A32E0030F3000F30F2004230BF
:100D2800F1004030F0000A128A15D4270A128A11FD
:100D3800013083120313D1025108031D8F2E0A12AA
:100D48008A15C2270A128A1100300A128A15EA2760
:100D58000A128A1153300A128A11F7200A128A11CC
:100D680014300A128A15EA270A128A1162300A1206
:100D78008A11F7200A128A11053083120313A5007D
:100D88002508CB004B080319B32F22300A128A1505
:100D9800EA270A128A11831203134B08A500A60139
:100DA800A701A8012808A3002708A2002608A10077
:100DB8002508A000A401A40A0A128A11FA210A121D
:100DC8008A110A3083120313A5002508D10051089F
:100DD8000319022F0030F3000F30F2004230F10007
:100DE8004030F0000A128A15D4270A128A110130FD
:100DF80083120313D1025108031DEE2E0130CB02DA
:100E0800C62E87110A128A15C2270A128A110030C3
:100E18000A128A15EA270A128A1193300A128A11CD
:100E2800F7200A128A1107300A128A15EA270A12CD
:100E38008A11831203135008A500A601A701A8016F
:100E48002808A3002708A2002608A1002508A0005A
:100E58000330A9002908A4000A128A11FA210A12EB
:100E68008A110A300A128A15EA270A128A1183128D
:100E780003134E08A0004F08A100A201A3010530EA
:100E8800A5002508A4000A128A11FA210A128A115B
:100E980014300A128A15EA270A128A1144300A12F3
:100EA8008A11F7200A128A11B32F8510871500308E
:100EB8000A128A15EA270A128A1193300A128A112D
:100EC800F7200A128A1107300A128A15EA270A122D
:100ED8008A11831203135008A500A601A701A801CF
:100EE8002808A3002708A2002608A1002508A000BA
:100EF8000330A9002908A4000A128A11FA210A124B
:100F08008A110A300A128A15EA270A128A118312EC
:100F180003134E08A0004F08A100A201A301053049
:100F2800A5002508A4000A128A11FA210A128A11BA
:100F380014300A128A15EA270A128A1124300A1272
:100F48008A11F7200A128A11B32F83120313440857
:100F5800013A0319372E033A0319052F592F0C307C
:100F680083120313A5002508D10051080319D02FB7
:100F78000030F3000F30F2004230F1004030F00052
:100F88000A128A15D4270A128A1101308312031310
:100F9800D1025108031DBC2FD2018711C40185104D
:100FA800D001CE01CF01C42C831203130A128A1177
:100FB800A4200A128A11D3000A128A11A5200A1243
:100FC8008A11D4000A128A11A6200A128A11D500A1
:100FD8000A128A11A7200A128A11D6000A128A1147
:100FE800A8200A128A11D7000A128A11A920D8004B
:080FF80083010A128A116D2C1D
:101F840001300A128A11AA200A128A150030F300BD
:101F94000030F2000130F1005E30F0000A128A15C0
:101FA400D42708007108F5007008F4007508803A19
:101FB400FF0080307F02031DE12F01307402031CF7
:101FC4000800FF30F4070318F50AFF30F507D82F8F
:101FD400F800103078020318F52F7808803E0A12B2
:101FE4008A11AA2008007808EC3EF7007708F80068
:0C1FF4007808C03E0A128A11AA200800DA
:02400E0032FF7F
:00000001FF
