:100000000A128A15D02E00308A000408840A82075A
:1000100000345534733465347234203469346434B4
:1000200065346E34743469346634693465346434E8
:100030002E342034003420342034203420345334FF
:1000400061347634653420346D346F34643465340F
:100050002034203420340034553473346534723401
:1000600020346E346F347434203466346F34753415
:100070006E3464342E340034203450346C346134A3
:1000800063346534203479346F34753472342034F9
:1000900074346134673400345534733465347234E5
:1000A0002034493444342034733461347634653434
:1000B00064342E34003444346F346F34723420345A
:1000C0006C346F3463346B342034773469346C347B
:1000D0006C3400346234653420346C346F346334EF
:1000E0006B3465346434203469346E342034003425
:1000F0006F346E3420347434683465342034723490
:1001000065346134643465347234003420345234DC
:10011000463449344434203464346F346F34723498
:100120000034203473346534633475347234693484
:100130007434793400344934443420346E346F34A8
:060140003A3420340034C3
:1001480001300A128A1510260A128A110030F300AB
:100158000030F2000130F1005E30F0000A128A151A
:10016800A6260A128A1108000A30831203132402F1
:10017800031CBF28C028FC285430F3000B30F200C1
:10018800E430F1000030F0002308F7002208F60000
:100198002108F5002008F4000A128A1536270A12E9
:1001A8008A11730883120313A3007208A20071084E
:1001B800A1007008A0003B30F3009A30F200CA306A
:1001C800F1000030F0002308F7002208F6002108AB
:1001D800F5002008F4000A128A1592270A128A11DB
:1001E8007008303E0A128A1529260A128A11FC283C
:1001F8000930831203132402031C0329042940290C
:100208003B30F3009A30F200CA30F1000030F000C1
:100218002308F7002208F6002108F5002008F4005A
:100228000A128A1536270A128A11730883120313D1
:10023800A3007208A2007108A1007008A000053090
:10024800F300F530F200E130F1000030F00023084F
:10025800F7002208F6002108F5002008F4000A1229
:100268008A1592270A128A117008303E0A128A15D6
:1002780029260A128A1140290830831203132402FE
:10028800031C4729482984290530F300F530F2007A
:10029800E130F1000030F0002308F7002208F600F2
:1002A8002108F5002008F4000A128A1536270A12D8
:1002B8008A11730883120313A3007208A20071083D
:1002C800A1007008A0000030F3009830F2009630CA
:1002D800F1008030F0002308F7002208F60021081A
:1002E800F5002008F4000A128A1592270A128A11CA
:1002F8007008303E0A128A1529260A128A118429A2
:100308000730831203132402031C8B298C29C82964
:100318000030F3009830F2009630F1008030F000A1
:100328002308F7002208F6002108F5002008F40049
:100338000A128A1536270A128A11730883120313C0
:10034800A3007208A2007108A1007008A000003084
:10035800F3000F30F2004230F1004030F000230883
:10036800F7002208F6002108F5002008F4000A1218
:100378008A1592270A128A117008303E0A128A15C5
:1003880029260A128A11C829063083120313240267
:10039800031CCF29D0290C2A0030F3000F30F200BB
:1003A8004230F1004030F0002308F7002208F60040
:1003B8002108F5002008F4000A128A1536270A12C7
:1003C8008A11730883120313A3007208A20071082C
:1003D800A1007008A0000030F3000130F200863060
:1003E800F100A030F0002308F7002208F6002108E9
:1003F800F5002008F4000A128A1592270A128A11B9
:100408007008303E0A128A1529260A128A110C2A07
:100418000530831203132402031C132A142A502ABA
:100428000030F3000130F2008630F100A030F00017
:100438002308F7002208F6002108F5002008F40038
:100448000A128A1536270A128A11730883120313AF
:10045800A3007208A2007108A1007008A000003073
:10046800F3000030F2002730F1001030F0002308CC
:10047800F7002208F6002108F5002008F4000A1207
:100488008A1592270A128A117008303E0A128A15B4
:1004980029260A128A11502A0430831203132402CF
:1004A800031C572A582A942A0030F3000030F2001F
:1004B8002730F1001030F0002308F7002208F6007A
:1004C8002108F5002008F4000A128A1536270A12B6
:1004D8008A11730883120313A3007208A20071081B
:1004E800A1007008A0000030F3000030F2000330D3
:1004F800F100E830F0002308F7002208F600210890
:10050800F5002008F4000A128A1592270A128A11A7
:100518007008303E0A128A1529260A128A11942A6E
:100528000330831203132402031C9B2A9C2AD82A13
:100538000030F3000030F2000330F100E830F00042
:100548002308F7002208F6002108F5002008F40027
:100558000A128A1536270A128A117308831203139E
:10056800A3007208A2007108A1007008A000003062
:10057800F3000030F2000030F1006430F00023088E
:10058800F7002208F6002108F5002008F4000A12F6
:100598008A1592270A128A117008303E0A128A15A3
:1005A80029260A128A11D82A023083120313240238
:1005B800031CDF2AE02A1C2B0030F3000030F20075
:1005C8000030F1006430F0002308F7002208F6003C
:1005D8002108F5002008F4000A128A1536270A12A5
:1005E8008A11730883120313A3007208A20071080A
:1005F800A1007008A0000030F3000030F2000030C5
:10060800F1000A30F0002308F7002208F60021085C
:10061800F5002008F4000A128A1592270A128A1196
:100628007008303E0A128A1529260A128A111C2BD4
:10063800831203132408031D222B492B0030F300D7
:100648000030F2000030F1000A30F0002308F70013
:100658002208F6002108F5002008F4000A128A157D
:1006680036270A128A11730883120313A30072082B
:10067800A2007108A1007008A0002008303E0A12EC
:100688008A1529260A128A11492B080003100030FE
:100698000318013083120313D0000030CE0000305D
:1006A800CF000310003003180130CC005808CA01ED
:1006B800CA075708C901C9075608C8005508C7001E
:1006C8005408C6005308C5000A128A15FA260A12E9
:1006D8008A110A128A11A4200A128A110310003002
:1006E8000318013083120313CA000030C70000301A
:1006F800C800071600300A128A1542260A128A1103
:100708007E300A128A1580260A128A1114300A12BB
:100718008A1542260A128A1189300A128A158026F9
:100728000A128A110C3083120313A5002508D10080
:10073800D108031DA02BA12BA32BBB2BBB2B003057
:10074800F3000F30F2004230F1004030F0000A129E
:100758008A15A6260A128A11013083120313D102C0
:10076800D108031DB82BB92BA32BBB2BBB2B031014
:10077800003003180130D0000030CE000030CF0028
:100788000A128A11A4200A128A1100300A128A1544
:1007980042260A128A1135300A128A1580260A1250
:1007A8008A1114300A128A1542260A128A117030E8
:1007B8000A128A1580260A128A11F92B871CE52B42
:1007C800E62BEB2B0719E92BEA2BEF2BEB2BCC01B4
:1007D8000314CC0DF92B051AF22BF32BF92B02304D
:1007E800A5002508CC00F92BF92B831203134C081C
:1007F800031DFF2BE22B302D302D8718042C052CE0
:100808001E2C071D082C092C1E2C031052082A3EEA
:10081800840000300318013083138000132C8718DC
:10082800162C172C3A2C07191A2C1B2C132C3A2C83
:100838003A2C3A2C871C212C222C3A2C0719252CCF
:10084800262C3A2C52082A3E840083138001031474
:10085800800D2E2C871C312C322C3A2C071D352C60
:10086800362C2E2C3A2C3A2C3A2C3A2C0130A50056
:100878002508D207872C402C871C432C442C492C54
:100888000719472C482C402C492C87184C2C4D2CE8
:10089800662C071D502C512C662C031052082A3E3A
:1008A8008400003003180130831380005B2C871804
:1008B8005E2C5F2C822C0719622C632C5B2C822CFB
:1008C800822C822C871C692C6A2C822C07196D2C8F
:1008D8006E2C822C52082A3E840083138001031454
:1008E800800D762C871C792C7A2C822C071D7D2C68
:1008F8007E2C762C822C822C822C822C0130A50016
:100908002508D207872C1A305202031C8C2C8D2CF8
:10091800402C8E2C0310003003180130CC0003103B
:10092800003003180130D2000A128A11A4200A12DA
:100938008A11031000300318013083120313D20008
:1009480008305202031CA92CAA2CAC2CC32CC32C93
:100958005208013E2A3E84005008A500250783134B
:100968000004A6002608D0000130A5002508D207FB
:1009780008305202031CC12CC22CAC2CC32C03100F
:10098800003003180130D20010305202031CCD2C65
:10099800CE2CD02CF02CF02C4F08A6004E08A50029
:1009A8000130FF000310A50DA60DFF0BD62C520831
:1009B800093E2A3E8400831300082504CE00260839
:1009C800CF000130A5002508D20710305202031CC1
:1009D800EE2CEF2CD02CF02C031000300318013033
:1009E800CD0002304D02031CFA2CFB2CFD2C2A2DC5
:1009F8002A2D4D08493E8400831300085006031D24
:100A0800062D072D1F2D4D08A5002507453E8400FE
:100A18000008A600840A0008A7004F082706031D3F
:100A2800172D4E082606031D1A2D1B2D1F2DC40138
:100A38000314C40D1F2D0130A5002508CD07023071
:100A48004D02031C282D292DFD2C2A2D0A128A114E
:100A5800A4200A128A11302D831203134C08013A7C
:100A68000319372D382D012C212E212E0A128A1117
:100A7800A4200A128A1100300A128A1542260A1284
:100A88008A1113300A128A1580260A128A11143024
:100A98000A128A1542260A128A1134300A128A1555
:100AA80080260A128A11A22D592D83120313871C3E
:100AB8005E2D5F2D642D0719622D632D592D642D30
:100AC8008718672D682D812D071D6B2D6C2D812DA5
:100AD800031052082A3E84000030031801308313A3
:100AE8008000762D8718792D7A2D9D2D07197D2D5B
:100AF8007E2D762D9D2D9D2D9D2D871C842D852D3C
:100B08009D2D0719882D892D9D2D52082A3E840078
:100B1800831380010314800D912D871C942D952D2E
:100B28009D2D071D982D992D912D9D2D9D2D9D2D28
:100B38009D2D0130A5002508D207A22D1A30831259
:100B480003135202031CA92DAA2D592DAB2D0310F6
:100B5800003003180130CC000310003003180130B6
:100B6800D2000A128A11A4200A128A110310003036
:100B78000318013083120313D20008305202031CF9
:100B8800C62DC72DC92DE02DE02D5208013E2A3E65
:100B980084005008A500250783130004A600260832
:100BA800D0000130A5002508D20708305202031CE6
:100BB800DE2DDF2DC92DE02D031000300318013084
:100BC800D20010305202031CEA2DEB2DED2D0D2E14
:100BD8000D2E4F08A6004E08A5000130FF00031097
:100BE800A50DA60DFF0BF32D5208093E2A3E8400E1
:100BF800831300082504CE002608CF000130A50085
:100C08002508D20710305202031C0B2E0C2EED2D96
:100C18000D2E5008A5002508CA004F08C801C807AE
:100C28004E08C701C7070230A5002508C4000A12EC
:100C38008A11A4200A128A11212E831203134C0848
:100C4800023A0319282E292E3A2DB82FB82F8514C9
:100C5800871100300A128A1542260A128A11933027
:100C68000A128A1580260A128A1107300A128A1572
:100C780042260A128A11831203135008A500A601FE
:100C8800A701A8012808A3002708A2002608A10098
:100C98002508A0000330A9002908A4000A128A1117
:100CA800B8200A128A110A300A128A1542260A1234
:100CB8008A11831203134E08A0004F08A100A20155
:100CC800A3010530A5002508A4000A128A11B8203E
:100CD8000A128A1114300A128A1542260A128A1137
:100CE80001300A128A1580260A128A110C308312E2
:100CF8000313A5002508D100D108031D842E852ED5
:100D0800872E9E2E9E2E0030F3000F30F2004230C8
:100D1800F1004030F0000A128A15A6260A128A113C
:100D2800013083120313D102D108031D9C2E9D2E7E
:100D3800872E9E2E0A128A11A4200A128A110030C8
:100D48000A128A1542260A128A1153300A128A1583
:100D580080260A128A1114300A128A1542260A12AB
:100D68008A1162300A128A1580260A128A11053001
:100D780083120313A5002508CB00CB08031DC52E3D
:100D8800C62EC82EC22FC22F22300A128A1542261A
:100D98000A128A11831203134B08A500A601A701A2
:100DA800A8012808A3002708A2002608A1002508F2
:100DB800A000A4010314A40D0A128A11B8200A1273
:100DC8008A110A3083120313A5002508D100D1081F
:100DD800031DEF2EF02EF22E092F092F0030F300FD
:100DE8000F30F2004230F1004030F0000A128A154C
:100DF800A6260A128A11013083120313D102D108E0
:100E0800031D072F082FF22E092F0130CB02CB0824
:100E1800031D0F2F102FC82EC22FC22F8514871124
:100E28000A128A11A4200A128A1100300A128A159D
:100E380042260A128A1193300A128A1580260A124B
:100E48008A1107300A128A1542260A128A11831259
:100E580003135008A500A601A701A8012808A300AC
:100E68002708A2002608A1002508A0000330A90031
:100E78002908A4000A128A11B8200A128A110A3015
:100E88000A128A1542260A128A11831203134E087F
:100E9800A0004F08A100A201A3010530A500250864
:100EA800A4000A128A11B8200A128A1114300A12F0
:100EB8008A1542260A128A1144300A128A15802697
:100EC8000A128A11C22F8510871500300A128A1556
:100ED80042260A128A1193300A128A1580260A12AB
:100EE8008A1107300A128A1542260A128A118312B9
:100EF80003135008A500A601A701A8012808A3000C
:100F08002708A2002608A1002508A0000330A90090
:100F18002908A4000A128A11B8200A128A110A3074
:100F28000A128A1542260A128A11831203134E08DE
:100F3800A0004F08A100A201A3010530A5002508C3
:100F4800A4000A128A11B8200A128A1114300A124F
:100F58008A1542260A128A1124300A128A15802616
:100F68000A128A11C22FC22F831203134408013AAE
:100F780003192B2E033A0319122F672F0C308312F3
:100F88000313A5002508D100D108031DCC2FCD2FB0
:100F9800CF2FE62FE62F0030F3000F30F20042305B
:100FA800F1004030F0000A128A15A6260A128A11AA
:100FB800013083120313D102D108031DE42FE52F5A
:100FC800CF2FE62F0310003003180130D20087110D
:100FD8000310003003180130C400851003100030DE
:100FE80003180130D0000030CE000030CF00BB2BFA
:080FF800BB2B0A128A1100282C
:101C1400B1345734003400347F340034F600831276
:101C240003130510760886000030F3000030F2003C
:101C34000130F1009030F0000A128A15A6260A122B
:101C44008A150A128A155F260A128A150800F600F8
:101C5400831203130514760886000030F300003065
:101C6400F2000130F1009030F0000A128A15A62625
:101C74000A128A150A128A155F260A128A150800A2
:101C8400F800103078020318482E492E512E780897
:101C9400803E0A128A1510260A128A155E2E7808CA
:101CA400EC3EF7007708F8007808C03E0A128A155F
:101CB40010260A128A155E2E080083120313871653
:101CC4000030F3000030F2000130F1002C30F0005D
:101CD4000A128A15A6260A128A158312031387127A
:101CE4000030F3000030F2000130F1002C30F0003D
:101CF4000A128A15A6260A128A150800F800932EDD
:101D0400780884000A128A1103200A128A150A121A
:101D14008A1529260A128A150130F7007708F80770
:101D2400932E7808031D972EA52E780884000A1296
:101D34008A1103200A128A150038031DA22EA32E2D
:101D4400822EA52EA52E08007108F501F50770084E
:101D5400F401F4077508803AFF0080307F02031D08
:101D6400B52E013074020318B82EB92EBB2ECF2E17
:101D7400CF2EFF30F4070318F50AFF30F507750876
:101D8400803AFF0080307F02031DCA2E01307402A6
:101D94000318CD2ECE2EBB2ECF2E08008312031394
:101DA4000A128A150A260A128A15D3000A128A15FB
:101DB4000B260A128A15D4000A128A150C260A1256
:101DC4008A15D5000A128A150D260A128A15D6001C
:101DD4000A128A150E260A128A15D7000A128A15C3
:101DE4000F260A128A15D80083010A128A114A2B77
:101DF4000630831603139F003C30850086010730AC
:101E0400870001300A128A1510260A128A15023038
:101E14000A128A1510260A128A1506300A128A1521
:101E240010260A128A150C300A128A1510260A1274
:101E34008A1538300A128A1510260A128A15831256
:101E4400031307120030F3000030F2001330F100E6
:101E54008830F0000A128A15A6260A128A158312FF
:101E64000313871185100800730872047104700449
:101E740003193D2F3E2F882FF9010314F90D502F1C
:101E84000130F8000310F00DF10DF20DF30DF80B15
:101E9400442F0130F8007808F907502FF31F532F0F
:101EA400542F422F562F562F73087702031D642F89
:101EB40072087602031D642F71087502031D642FD6
:101EC40070087402031C672F682F772F7008F402C0
:101ED4007108031C710FF5027208031C720FF602DD
:101EE4007308031C730FF702772F01300310F30CF0
:101EF400F20CF10CF00CFF3E031D782F0130F902B7
:101F0400031D852F862F562F882F882F7708F300DF
:101F14007608F2007508F1007408F000912F0800AB
:101F24000030FC000030FB000030FA000030F90003
:101F340073087204710470040319A12FA22FF62FE1
:101F4400FD010314FD0DB42F0130F8000310F00D52
:101F5400F10DF20DF30DF80BA82F0130F8007808FD
:101F6400FD07B42FF31FB72FB82FA62FBA2FBA2F00
:101F74000130F8000310F90DFA0DFB0DFC0DF80B00
:101F8400BC2F73087702031DD12F72087602031D3C
:101F9400D12F71087502031DD12F70087402031C20
:101FA400D42FD52FE52F7008F4027108031C710F8C
:101FB400F5027208031C720FF6027308031C730FF8
:101FC400F7027914E52F01300310F30CF20CF10C35
:101FD400F00CFF3E031DE62F0130FD02031DF32F1D
:101FE400F42FBA2FF62FF62F7C08F3007B08F200AB
:0C1FF4007A08F1007908F000FF2F0800C7
:02400E00323F3F
:00000001FF
